:100000000C941B010C944C010C944C010C944C016D
:100010000C944C010C944C010C944C010C944C012C
:100020000C944C010C944C010C944C010C944C011C
:100030000C944C010C944C010C944C010C944C010C
:100040000C944C010C944C010C944C010C944C01FC
:100050000C944C010C944C010C944C010C94E40D48
:100060000C944C010C94580E0C942E0E0C944C01D4
:100070000C944C010C944C010C944C010C944C01CC
:100080000C944C010C944C010C944C010C944C01BC
:100090000C944C010C944C010C944C010C944C01AC
:1000A0000C944C010C944C010C944C010C944C019C
:1000B0000C944C010C944C010C944C010C944C018C
:1000C0000C944C010C944C010C944C010C944C017C
:1000D0000C944C010C944C010C944C010C944C016C
:1000E0000C944C010C94D4010C947E010C94ED0200
:1000F0000C94CA010C94A1010C94D0010C94AA0197
:100100000C945A020C94C2010C9468020C94A40141
:100110000C940A020C94BC010C9495010C949D0162
:100120000C94B8010C94A0020C9499010C948301D6
:100130000C9446020C9437020C94C6010C94B40142
:100140000C94AE010C9485110000220025002800BB
:100150002B002E00310034000201000005010801CF
:100160000B0105050505070508080808020202023B
:100170000A0A080804040404010101010101010143
:100180000303030303030303040707070C0C0C0C0E
:100190000C0C0C0C020202020606060606060606F7
:1001A0000B0B0B0B0B0B0B0B010210202008081084
:1001B00020401020408002010201080402010102D7
:1001C00004081020408080402010080402018004B0
:1001D000020180402010080402010804020101020B
:1001E0000408102040800102040810204080000014
:1001F0000A0B02090C0D0E080703040100000000A1
:1002000000000000000000000000000000000000EE
:1002100000000000000000000000121110000000AB
:1002200000000000000000000000000000000000CE
:1002300000000000851111241FBECFEFDFEFDEBFED
:10024000CDBF00E00CBF14E0A0E0B2E0E0E4F6E2D5
:1002500000E00BBF02C007900D92A635B107D9F799
:1002600028E0A6E5B4E001C01D92A831B207E1F78D
:1002700011E0CBE1D1E000E006C021970109802F19
:10028000FE010E94B211CA31D10780E00807A9F728
:100290000E948E0E0C941E130C940000282F30E048
:1002A000F901E251FE4F9491F901E855FE4F449156
:1002B0002E593E4FF9012491222309F435C0992388
:1002C00011F191509231F8F4E92FF0E08827E459C8
:1002D000FE4F8F4F0C94B2119D01A1017E0195013B
:1002E00099018301A401AA01AE01B401B801BC01C6
:1002F000C201C6018301CA01D001D40180918000EE
:100300008F7780938000E22FF0E0EE0FFF1FE85B15
:10031000FE4FA591B4918FB7F894EC91611148C04C
:1003200040954E234C938FBF0895809180008F7D20
:10033000E8CF80918000877FE4CF84B58F7784BD3C
:10034000E2CF84B58F7DFBCF8091B0008F77809313
:10035000B000D9CF8091B0008F7DF9CF809190000F
:100360008F7780939000CFCF809190008F7DF9CFD1
:1003700080919000877FF5CF8091A0008F77809348
:10038000A000C1CF8091A0008F7DF9CF8091A00007
:10039000877FF5CF809120018F7780932001B3CFA5
:1003A000809120018F7DF9CF80912001877FF5CF4B
:1003B0004E2BB8CF8230910538F0880F991F880FE7
:1003C000991F05970197F1F708953FB7F894809129
:1003D000100890911108A0911208B091130826B549
:1003E000A89B05C02F3F19F00196A11DB11D3FBF6D
:1003F000BA2FA92F982F8827BC01CD01620F711D3C
:10040000811D911D42E0660F771F881F991F4A9535
:10041000D1F70895AF92BF92CF92DF92EF92FF9201
:100420000F931F93CF93DF936C017B018B01040F1C
:10043000151FEB015E01AE18BF08C017D10759F0B8
:100440006991D601ED91FC910190F081E02DC601FA
:100450001995892B79F7C501DF91CF911F910F91E4
:10046000FF90EF90DF90CF90BF90AF900895FC0188
:10047000538D448D252F30E0842F90E0821B930B09
:10048000541710F0CF96089501970895FC01918DAF
:10049000828D981761F0A28DAE0FBF2FB11D5D96B2
:1004A0008C91928D9F5F9F73928F90E008958FEF54
:1004B0009FEF0895FC01918D828D981731F0828D08
:1004C000E80FF11D858D90E008958FEF9FEF08955F
:1004D000FC01918D228D892F90E0805C9F4F821BC3
:1004E00091098F73992708958BE497E00E94680221
:1004F00021E0892B09F420E0822F0895FC01A48DCE
:10050000A80FB92FB11DA35ABF4F2C91848D90E035
:1005100001968F739927848FA689B7892C93A08918
:10052000B1898C91837080648C93938D848D9813A2
:1005300006C00288F389E02D80818F7D8083089535
:10054000EF92FF920F931F93CF93DF93EC0181E023
:10055000888F9B8D8C8D98131AC0E889F9898081CA
:1005600085FF15C09FB7F894EE89FF896083E889FD
:10057000F98980818370806480839FBF81E090E0EF
:10058000DF91CF911F910F91FF90EF900895F62E7C
:100590000B8D10E00F5F1F4F0F731127E02E8C8D16
:1005A0008E110CC00FB607FCFACFE889F98980815B
:1005B00085FFF5CFCE010E947E02F1CFEB8DEC0FCF
:1005C000FD2FF11DE35AFF4FF0829FB7F8940B8F78
:1005D000EA89FB8980818062CFCFCF93DF93EC01E2
:1005E000888D8823B9F0AA89BB89E889F9898C911B
:1005F00085FD03C0808186FD0DC00FB607FCF7CFD7
:100600008C9185FFF2CF808185FFEDCFCE010E94D6
:100610007E02E9CFDF91CF91089580E090E0892BB1
:1006200029F00E94740281110E94000080E090E095
:10063000892B49F080E090E0892B29F00E9400008E
:1006400081110E94000080E090E0892B49F080E059
:1006500090E0892B29F00E94000081110E94000087
:1006600080E090E0892B49F080E090E0892B29F030
:100670000E94000081110C940000089587309105BC
:1006800058F4880F991F880F991FFC01EA5FFB4FF0
:10069000828193810F9719F090E080E0089581E0C6
:1006A00090E0089520915904209530E0F901EA5F27
:1006B000FC4F908190952A5F3D4FD9018C914091DC
:1006C00057045091580442505109E9E5F4E031963D
:1006D0009F01295534402417350770F42081922753
:1006E000292F30E0D901AA5FBC4F9C9198272A5F3F
:1006F0003D4FD9018C91EBCF089523E030E030934A
:10070000580420935704E9E5F4E09091380790836A
:1007100080588183628308950F931F93582F5770D9
:1007200001E010E020E030E004C0000F111F221FA4
:10073000331F5A95D2F723E0969587952A95E1F7CE
:100740009927E0914207F0914307662321F0E09159
:100750004807F0914907E80FF91F8081442329F0E9
:10076000082B00831F910F91089500950823F9CF5E
:100770002F923F924F925F926F927F928F929F92B1
:10078000AF92BF92CF92DF92EF92FF920F931F939F
:10079000CF93DF93CDB7DEB7C354D1090FB6F8942A
:1007A000DEBF0FBECDBF10E000E0F801EE0FFF1F6F
:1007B000E853F94F0190F081E02D309749F041E086
:1007C0008081811101C040E060E0C8010E948C037B
:1007D0000F5F1F4F0833110541F7E0903907F09084
:1007E0003A0708E816E019AF08AF8701005C1F4F11
:1007F000F70128E836E0D9018D919D919D01009780
:1008000029F0DC018D919C91918380833296E017D1
:10081000F10789F7D12CC12CF601EE0FFF1FE85E1E
:10082000F94F0190F081E02D309749F041E080814F
:10083000811101C040E061E0C6010E948C03BFEF5E
:10084000CB1ADB0AE8E3CE16D10431F748ED55E0C8
:10085000E0914507F09146079F01205C3F4FDA0188
:100860008D919D91AD01009729F0DC018D919C91B6
:100870009183808332962E173F0789F7E0EBF5E0EE
:10088000FBAFEAAFF80108E6E00EF11C20EB35E023
:10089000D9018D919D919D01009729F0DC018D91E9
:1008A0009C91918380833296EE15FF0589F7E8E8E5
:1008B000F5E0FDAFECAFE0913C07F0913D079F0103
:1008C000205B3F4F08E815E0D8018D919D918D0187
:1008D000009749F0DC014D915D916D917C914083D1
:1008E00051836283738334962E173F0769F7E0E6DE
:1008F000F5E0FFAFEEAFE0913F07F09140079F01B9
:1009000020563F4F80E695E0DC01CD90DD90CD0193
:10091000C114D104F1F0D601EC901196FC9011971E
:1009200012960C91129713961C91139714967C9122
:10093000149715966C91159716965C9116971796C5
:100940004C91E082F1820283138374836583568322
:10095000478338962E173F07B9F610925804109225
:10096000570480915E0590915F05DC01ED91FC914B
:100970000084F185E02D1995892B09F483C08091BD
:100980005E0590915F05DC01ED91FC910084F1859D
:10099000E02D19952091570430915804A0915E05DF
:1009A000B0915F05ED91FC9111970084F185E02DE8
:1009B0002817390768F4CD0119959093580480934E
:1009C000570480915B0590915C050E94DA01D7CFB6
:1009D000CD011995813091400CF054C080915E0595
:1009E00090915F05DC01ED91FC910084F185E02D93
:1009F000199506970CF446C049E5842E44E0942EE0
:100A00008401E0905704F0905804C801895594403F
:100A10008E159F0578F480915E0590915F05DC014D
:100A2000ED91FC910284F385E02D1995F8018193F5
:100A30008F01E7CF10915A048FEB810F853080F042
:100A40000E9452039701275A3B4FF9013297408188
:100A500021503109D9012C91342F2817390791F4ED
:100A60009091590480913807981709F4CDC080916E
:100A70005E0590915F05DC01ED91FC910680F781A8
:100A8000E02D1995409142075091430730E020E056
:100A9000F901EE0FFF1FE853F94F0190F081E02DAF
:100AA000309799F0D90183E0B695A7958A95E1F73B
:100AB000A40FB51F8C9190E0622F677002C09595CE
:100AC00087956A95E2F7817080832F5F3F4F2833C7
:100AD0003105F1F68091390790913A07BC01605CCD
:100AE0007F4FDC01E8ADF9AD21913191F9AFE8AF6D
:100AF0002115310531F04D915C911197F901518328
:100B0000408312966A177B0769F7FB0188599F4F4C
:100B1000AAADBBAD4D915D91BBAFAAAF41155105DB
:100B200029F020813181DA012D933C9332968E1782
:100B30009F0771F7E0913C07F0913D07CF01805B83
:100B40009F4FACADBDAD2D913D91BDAFACAF21156B
:100B5000310551F04081518162817381D9014D93FA
:100B60005D936D937C93139734968E179F0749F787
:100B7000E0913F07F0914007CF0180569F4FAEAD07
:100B8000BFADED90FD90BFAFAEAFE114F104F1F059
:100B90000081118172816381548145813681278171
:100BA000D7010C9311961C93119712967C93129770
:100BB00013966C93139714965C93149715964C9315
:100BC000159716963C93169717962C9338968E1772
:100BD0009F07A9F6CD5BDF4F0FB6F894DEBF0FBEBF
:100BE000CDBFDF91CF911F910F91FF90EF90DF90DC
:100BF000CF90BF90AF909F908F907F906F905F90BD
:100C00004F903F902F900895B2E0EB1AF108F092C8
:100C10005804E092570480915B0490915C04382E54
:100C2000292E60905D0470905E04762467247624FB
:100C3000D0905D0420915F0430E01F3009F48AC534
:100C4000A0F5133009F480C158F4113009F4F5C34C
:100C5000123009F484C461E070E0812F90E022C07A
:100C6000153009F457C508F40BC51630A1F72091CB
:100C70003B0780913E0790E0880F991FE22FF0E03C
:100C80008E0F9F1F4091410704E0409FA001112457
:100C9000480F591F2416350608F449C062E070E079
:100CA00086E090E00E947D034FC0123409F406C72D
:100CB00098F4103109F462C2113469F684E090E0CE
:100CC000909358048093570410935A0410925B0435
:100CD00087E080935C0438C0143409F45DC608F4DE
:100CE000DDC5153409F0B7CF8D3AFEED9F0709F049
:100CF00058C71092560485E480935A048EE7809377
:100D00005B0481E2E4E3F4E0DE01119601900D92D0
:100D10008A95E1F7FE013196ACE5B4E081919D0141
:100D200029553440882309F44AC78D93F7CF2E16EE
:100D30003F06D8F4220C331CE0913907F0913A07B2
:100D4000E20DF31D718260828091570490915804E6
:100D500002968130914008F45AC580915A0464E0AB
:100D600070E090E00E947D0352C528163906F0F528
:100D7000A30170E060E080913C0790913D0720FC6A
:100D80001CC091012E1B3F0BF901EE0FFF1FEC7FE2
:100D9000F370E80FF91F80819181A281B381AA27A6
:100DA000BB27BA0155274427842B952BA62BB72B9D
:100DB00080839183A283B383C7CFE095F095E20D42
:100DC000F31DEE0FFF1FEC7FF370E80FF91F60803B
:100DD0007180828093806624772446295729682968
:100DE00079294083518362837383AECF910123704D
:100DF00033274301B12CA12CC12CD12C7601E091D9
:100E00003F07F09140072115310549F5281A390AA5
:100E1000220C331C38EF232237E03322E20DF31D7E
:100E20005080618072801381B481A581940140E07B
:100E300050E060E070E080E090E000E30E94BA11D2
:100E400025292083632A6182742A7282152B1383D9
:100E5000B62BB483A72BA5838683978375CF2130C8
:100E6000310541F56FEF261A360A281A390A220C85
:100E7000331C88EF282287E03822E20DF31D5080D2
:100E8000618072801381B681A7819401A501B601AA
:100E9000C70100E20E94BA11522A5082632A61827D
:100EA000742A7282152B1383648375838B2B86833C
:100EB0009A2BD3CF2230310529F5A2E02A0E311C1E
:100EC000281A390A220C331CB8EF2B22B7E03B2238
:100ED000E20DF31D5080618074801581B681A78179
:100EE0009401A501B601C70100E10E94BA11522A7E
:100EF0005082632A618242835383762A7482172B3D
:100F00001583D4CF03E0200E311C281A390A220C95
:100F1000331C18EF212217E03122E20DF31D52811C
:100F200043813481258196818781808291825A29EB
:100F300052834B2943833C2934832D2925839E29C1
:100F400096838F29878300CFC301019763E070E008
:100F50008D379105C8F46101C60CD71C40913B0741
:100F6000E0913E07F0E0EE0FFF1FE40FF11D8091CE
:100F7000410724E0829FC00111248E0F9F1FC816D5
:100F8000D90628F062E070E083E090E08BCE660C3A
:100F9000771CC30103969093580480935704A9E5E6
:100FA000B4E011969D01295534402817390710F4F3
:100FB0001C92F7CF93E090935A04835080935B0484
:100FC000E0903F07F0904007A0903C07B0903D07AD
:100FD000A0913907B0913A07BAA7A9A7A42FB0E00A
:100FE000BBABAAAB83E090E02C014E1A5F0A3D0137
:100FF000609470942C143D0409F4A6CEAAA9BBA950
:101000002A163B0660F49101220F331FA9A5BAA549
:101010002A0F3B1FD9018C9111963C911AC02E16B4
:101020003F0670F520FC22C0C101AAA9BBA98A1BFA
:101030009B0B880F991F8C7F93708A0D9B1DDC0181
:101040004D915D916D917C91AB0166277727842F3F
:10105000352FD40113963C93139714968C93B2E0DA
:101060008B0E911C0FEF201A300AC4CF9301220D72
:10107000331D220F331F2C7F33702A0D3B1DCACF27
:101080008101037011270115110521F581010E1B46
:101090001F0B000F111F087F17700E0D1F1DD801A9
:1010A0002C9111963C91119712964C911297139690
:1010B0005C91139714966C91149715967C911597E3
:1010C00016968C91169717969C9100E30E94D51165
:1010D000822FBFCF0130110511F50E1B1F0B020D22
:1010E000131D000F111F087F17700E0D1F1DD80153
:1010F0002C9111963C91119712964C911297139640
:101100005C91139714966C91149715967C91159792
:1011100016968C91169717969C9100E2D7CF0230C5
:10112000110511F50E1B1F0B020D131D000F111FD2
:10113000087F17700E0D1F1DD8012C9111963C9140
:10114000119712964C91129713965C9113971496DF
:101150006C91149715967C91159716968C9116970D
:1011600017969C9100E1B2CF9201220D331D220F00
:10117000331F287F37702E0D3F1D4CCFC3010197C1
:101180008B37910530F4C301880F991F2817390751
:1011900029F063E070E080E190E084CDD101A60DFC
:1011A000B71DBDABACAB80913B0740903E07512CC7
:1011B000440C551CA82EB12C4A0C5B1C20914107F5
:1011C000B4E02B9F90011124240D351DECA9FDA93D
:1011D000E217F30718F062E070E0DDCF26E030E0C0
:1011E000309358042093570410935A0430925B04B0
:1011F00020925C0410925D0460925E0460903F0750
:1012000070904007C0903C07D0903D07DFAACEAA5F
:101210004091390750913A079101220F331F7A010B
:10122000E20EF31EFBAAEAAAD101A419B509C50171
:1012300080959095FC01E40DF51D2296FFAFEEAF71
:1012400022976201CA18DB082496DFAECEAE24973F
:10125000ECA8FDA82E143F0409F4D9C2F40147817B
:101260008085542F482F2A143B0488F4EAA9FBA94F
:1012700051834083EAA9FBA93296FBABEAAB1196F6
:10128000FFEF2F1A3F0A02E0800E911CE1CF2414D9
:101290003504C8F570E060E020FC20C02496EEAD77
:1012A000FFAD2497EA0FFB1FEE0FFF1FEC7FF370DB
:1012B000CEA8DFA8EC0DFD1D0081118122813381B4
:1012C00022273327BA0155274427402B512B622B65
:1012D000732B4083518362837383CCCF2296EEAD10
:1012E000FFAD2297EA0FFB1FEE0FFF1FEC7FF3709D
:1012F000EEA8FFA8EE0DFF1D008111812281338130
:1013000000271127E2CFC101837099276A01F12CD0
:10131000E12C00E010E09801C9A6DAA6EBA6FCA635
:101320000DA71EA72FA738ABFD01009741F5EE0FC3
:10133000FF1FE87FF770E60DF71DD080D9AAC180A6
:10134000D280E380F480158129A53AA540E050E0E1
:1013500060E070E080E090E000E30E94BA1109A92B
:10136000202B20833C2931834D2942835E295383DE
:10137000F62AF482172B1583868397837BCF8130DF
:10138000910541F53196EE0FFF1FE87FF770E60DEE
:10139000F71D108119ABC180D280E380F6801781E0
:1013A00029A53AA540E050E060E070E080E090E0E0
:1013B00000E20E94BA1109A9202B20833C29318325
:1013C0004D294283E52AE382648375838F298683CE
:1013D000912BD3CF029729F53296EE0FFF1FE87FAE
:1013E000F770E60DF71D108119ABC180D480E58040
:1013F000F680178129A53AA540E050E060E070E052
:1014000080E090E000E10E94BA1109A9202B20831E
:101410003C29318342835383D62AD482E72AE5824A
:10142000D5CF3396EE0FFF1FE87FF770E60DF71D5F
:1014300019A510832AA521831DCFC301019763E05D
:1014400070E0803D974068F520914407C101860D0A
:10145000971D62E070E02817190618F1C30143E0F8
:10146000969587954A95E1F79C012D5F3F4F309304
:10147000580420935704930127703327232B29F016
:101480000496909358048093570480915704909148
:101490005804E9E5F4E0813021E0920728F064E0A7
:1014A00070E081E090E0FECB31969F0129553440F9
:1014B0002817390710F41082F7CF91E090935A045F
:1014C000835080935B04009142071091430770E0C2
:1014D00060E020E0C12CD12C7601C394D701C60175
:1014E000022E04C0880F991FAA1FBB1F0A94D2F7AF
:1014F00089A79AA7ABA7BCA7FB0183E0F695E79560
:101500008A95E1F7E45AFB4F3081A10193E05695AB
:1015100047959A95E1F74F715527400F511FDA0112
:101520004C9150E0B22DB77002C055954795BA95D1
:10153000E2F789A540FF0FC0832B80832F5F2830FF
:1015400009F420E0EFEF2E1A3E0A6F5F7F4F661618
:10155000770621F6F9CB809538233083EFCFC3018E
:10156000019763E070E0803D974068F520914A075D
:10157000C101860D971D62E070E02817190618F169
:10158000C30113E0969587951A95E1F79C012D5FAD
:101590003F4F30935804209357049301277033270B
:1015A000232B29F00496909358048093570480913C
:1015B000570490915804E9E5F4E0813001E0900788
:1015C00028F064E070E082E090E06CCB31969F01FF
:1015D000295534402817390710F41082F7CF92E0CC
:1015E00090935A04835080935B04609148077091F4
:1015F000490750E040E010E0C12CD12C7601C394A3
:10160000D701C601012E04C0880F991FAA1FBB1F56
:101610000A94D2F789A79AA7ABA7BCA7FA0133E02F
:10162000F695E7953A95E1F7E45AFB4F0081910171
:10163000A3E036952795AA95E1F7260F372F311DA0
:10164000D9012C9130E0B22DB77002C035952795A5
:10165000BA95E2F789A520FF0FC0802B80831F5F1A
:10166000183009F410E0EFEF2E1A3E0A4F5F5F4F7B
:101670006416750629F668CB809508230083EFCFA2
:10168000C301019763E070E08D37910550F420911C
:101690004707C101860D971D2817190628F462E037
:1016A00070E084E090E0FECAC301880F991F0396A2
:1016B0009093580480935704E9E5F4E031969F0134
:1016C000295534402817390710F41082F7CF94E0D9
:1016D00090935A04835080935B04220C331CE09156
:1016E0004507F0914607E20DF31D01E0601A71080D
:1016F00012E0810E911C2FEF6216720609F424CBC2
:10170000808191813296D40111969C931197129603
:101710008C93EBCF6114BFEF7B0629F063E070E0A0
:101720006114710449F4809144078150990B82152A
:10173000930528F462E070E085E090E0B3CA41E0F0
:101740006114EFEF7E0609F040E060E0C1010E9405
:101750008C03FACAA30113E0569547951A95E1F751
:10176000842FB30167707727672B11F081E0840F16
:10177000A30141505109403B574018F4821713060A
:1017800029F063E070E08FE090E08CCA209144077C
:10179000C101860D971D2817190618F462E070E044
:1017A000F2CF86E090E090935804809357048FE046
:1017B00080935A0430925B0420925C0470925D0422
:1017C00060925E0410E000E0F12CF801A3E0F695D1
:1017D000E795AA95E1F7E75AFB4F478150E00F2CB8
:1017E00002C0559547950A94E2F7417060E0C10147
:1017F000800F911F0E948C03F394B8E0CB2EFC1055
:1018000001C0F12C0F5F1F4F60167106F1F60091B9
:10181000570410915804780122E0E20EF11CF09276
:101820005804E09257040E945203F801E75AFB4F14
:101830009083818380915D0587FD09C061E00E94EE
:101840004E018091590590915A050E94DA018091CC
:101850005E0590915F05DC01ED91FC910280F381C2
:10186000E02DA70169E574E0199580915E059091DE
:101870005F05DC01ED91FC910680F781E02D199563
:101880008091590590915A050E94DA0180915D0579
:1018900087FDF8C860E00E944E01F4C807E02016FA
:1018A000310408F06EC017E06116710408F069C0D9
:1018B0006214730408F465C08101000F111F000F4A
:1018C000111F0A5F1B4F5101F4E68F2EF4E09F2E8B
:1018D00090E080E0D80112962D913C91D12CC12C42
:1018E0002F30310519F4CC24C394D12C7C01EC0C9D
:1018F000FD1CA701455F5F4F4130514008F03FC0DC
:10190000F801608171812F30310511F060E070E0E5
:10191000A601C4010E9415138C0C9D1C95012F5F1C
:101920003F4F0C5F1F4FC70115016216730628F564
:10193000C7010796909358048093570483E48093DB
:101940005A048EE780935B0410925C0420925D043D
:101950008091FE079091FF072091000830910108C7
:1019600030935E0420935F0490936004809361043D
:10197000F0926204E0926304E7C95901ABCF7C01A5
:10198000D7CF83E090E0909358048093570483E48A
:1019900080935A0481E829C0F5E12F163104E0F460
:1019A0008E010F5F1F4F2801F801D12CC12C12E0CE
:1019B000810E911C2C143D04D9F0D40112968C9107
:1019C000129713969C918927982789278193919341
:1019D000BFEFCB1ADB0AEBCF83E090E09093580483
:1019E0008093570410935A0482E880935B04ACC937
:1019F000B12CA12C19A6712C612C0BE010E0CA149B
:101A0000DB04C1F1F201E190F1902F01F7E0EF1654
:101A1000F10440F083E090E09093580480935704E1
:101A200084E4B6CFC7010E943E034C011C01200E86
:101A3000311E21E022163206E8F4F701EE0FFF1FF7
:101A4000EE0FFF1FEA5FFB4F6081718182819381FE
:101A50000F9711F060E070E0A401C801875A9B4F16
:101A60000E941513680C791C3FEFA31AB30AE9A66C
:101A70008101C5CF109358040093570484E48093E8
:101A80005A048EE780935B0410925C04C9A4C09250
:101A90005D048091FE079091FF072091000830912E
:101AA000010830935E0420935F0490936004809358
:101AB0006104709262046092630446C907E02016D4
:101AC000310450F480915E0490915F049827892737
:101AD00098278A3F910540F083E090E09093580466
:101AE0008093570482E454CF8101000F111F000F2F
:101AF000111FF801EA5FFB4FE280F38080915604EA
:101B0000813081F0F801EA5FFB4F00811181D11033
:101B100029C0BFE0EB16F104C9F5F80181818D7F82
:101B2000818334C020E1E216F10461F3C1010E9417
:101B30003E039C0136952795FC01E75AFB4FA9E52A
:101B4000B4E03197CD018955944082179307D0F6C0
:101B500017968C911797978117969C931797878361
:101B60001196EFCFC1010E943E033FE0E316F1045E
:101B700069F4AC0160E674E0C8010E941513D80155
:101B800011968C911197826011968C9383E090E06E
:101B9000909358048093570482E480935A048EE70C
:101BA00024CF8E3D9D4A21F481E080935604A3C842
:101BB00083E090E090935804809357049CC830933E
:101BC000580420935704C0C81F920F920FB60F926B
:101BD00011242F933F938F939F93AF93BF93809143
:101BE0000C0890910D08A0910E08B0910F0830914B
:101BF0000B0823E0230F2D3758F50196A11DB11DC9
:101C000020930B0880930C0890930D08A0930E0866
:101C1000B0930F088091100890911108A0911208BC
:101C2000B09113080196A11DB11D809310089093E7
:101C30001108A0931208B0931308BF91AF919F9120
:101C40008F913F912F910F900FBE0F901F9018957D
:101C500026E8230F0296A11DB11DD2CF1F920F922D
:101C60000FB60F9211240BB60F922F933F934F9301
:101C70005F936F937F938F939F93AF93BF93EF93F4
:101C8000FF938BE497E00E947E02FF91EF91BF915A
:101C9000AF919F918F917F916F915F914F913F9104
:101CA0002F910F900BBE0F900FBE0F901F901895A5
:101CB0001F920F920FB60F9211240BB60F922F9313
:101CC0008F939F93EF93FF93E0915B07F0915C07F5
:101CD0008081E0916107F091620782FD1DC09081D3
:101CE000809164078F5F8F7320916507821741F0A1
:101CF000E0916407F0E0E55BF84F958F809364070F
:101D0000FF91EF919F918F912F910F900BBE0F90AC
:101D10000FBE0F901F9018958081F2CF789484B5F4
:101D2000826084BD84B5816084BD85B5826085BDD7
:101D300085B5816085BD80916E00816080936E0065
:101D40001092810080918100826080938100809157
:101D50008100816080938100809180008160809308
:101D600080008091B10084608093B1008091B000C8
:101D700081608093B0008091910082608093910097
:101D800080919100816080939100809190008160AA
:101D9000809390008091A10082608093A100809147
:101DA000A10081608093A1008091A0008160809358
:101DB000A000809121018260809321018091210106
:101DC00081608093210180912001816080932001B6
:101DD00080917A00846080937A0080917A0082609A
:101DE00080937A0080917A00816080937A0080915C
:101DF0007A00806880937A001092C1001092E80700
:101E00001092EA071092EC071092EE071092F0077A
:101E10001092F2071092F407E0915B07F0915C07D3
:101E200082E08083E0915707F09158071082E0919B
:101E30005907F0915A0780E1808310926307E0917F
:101E40005F07F091600786E08083E0915D07F09185
:101E50005E07808180618083E0915D07F0915E077D
:101E6000808188608083E0915D07F0915E078081CA
:101E700080688083E0915D07F0915E0780818F7DAF
:101E800080838BE497E090935F0580935E058FEFEE
:101E900080935D058EEE92E090935C0580935B05E8
:101EA00081E49AE090935A058093590581E08093EC
:101EB000380784E380933B0784E180933E07809357
:101EC000410788E38093440790E29093470780930B
:101ED0004A0787E090E00E94F011909343078093B7
:101EE0004207009709F451C0C7E0FC012C2F119262
:101EF0002A95E9F788E690E00E94F01190933A075E
:101F000080933907009709F440C028E6FC0111923C
:101F10002A95E9F780E590E00E94F01190933D0743
:101F200080933C07009789F120E5FC0111922A95E6
:101F3000E9F780EA90E00E94F011909340078093C7
:101F40003F07009711F120EAFC0111922A95E9F769
:101F500087E090E00E94F011909349078093480732
:101F6000009799F0FC011192CA95E9F780E490E09E
:101F70000E94F0119093460780934507009729F03F
:101F800020E4FC0111922A95E9F7D0E0C0E08E012F
:101F9000000F111F0853194FF80180819181892B7F
:101FA00049F481E090E00E94F011F8019183808370
:101FB000FC0110822196C833D10549F7C091390739
:101FC000D0913A07E8E8F6E090E080E02191319185
:101FD000232B39F4DF0112979E01280F391F2D930F
:101FE0003C9302968034910589F710E000E0C80127
:101FF000880F991F9C01285E394F7901F901808172
:102000009181892B49F481E090E00E94F011F70161
:1020100091838083FC0110820F5F1F4F08331105ED
:1020200031F72091450730914607E8EDF5E090E063
:1020300080E041915191452B39F4DF011297A901BC
:10204000480F591F4D935C9302968034910589F790
:10205000E0EBF5E090E080E0C05CDF4F2191319152
:10206000232B39F4DF0112979E01280F391F2D937E
:102070003C9302968832910589F740913C07509134
:102080003D07E8E8F5E090E080E021913191232BD5
:1020900059F4DF0112979C01220F331F220F331FC7
:1020A000240F351F2D933C9301968431910569F7D8
:1020B00040913F0750914007E0E6F5E090E080E076
:1020C00021913191232B61F4DF0112979C0163E090
:1020D000220F331F6A95E1F7240F351F2D933C9390
:1020E00001968431910561F780E29EE4A0E0B0E0C2
:1020F0008093030890930408A0930508B093060802
:102100000E94E5016093070870930808809309080E
:1021100090930A08C1E00E94E50100910708109120
:1021200008082091090830910A08601B710B820B86
:10213000930B009103081091040820910508309139
:102140000608601771078207930708F499C0809109
:10215000FE079091FF07A0910008B0910108019639
:10216000A11DB11D8093FE079093FF07A093000867
:10217000B09301088091F10781FD0CC08091E807C0
:10218000882329F081E09091EA07911101C080E055
:102190008093F0078091F30781FD0CC08091E807E0
:1021A000811187C081E09091EA07911101C080E020
:1021B0008093F2078091EE079091EC07992309F440
:1021C0007AC081117BC08091F50781FFC093F4072D
:1021D0008091FA079091FB07A091FC07B091FD0751
:1021E000AC01BD01535D6E4C7E4F4115FAEC5F07AB
:1021F000FAE96F07FBE37F0708F067C04093FA072F
:102200005093FB076093FC077093FD070E94B8038F
:1022100080910208811118C0C09302080E94E50154
:1022200000910308109104082091050830910608D8
:10223000601B710B820B930B609307087093080867
:102240008093090890930A088091070890910808E4
:10225000A0910908B0910A08409103085091040820
:102260006091050870910608840F951FA61FB71F7F
:102270008093070890930808A0930908B0930A0870
:102280000E94E501009107081091080820910908B3
:1022900030910A08601B710B820B930B60317742FF
:1022A0008105910510F00E94B80388950E940D03E6
:1022B00032CF81E07DCF882309F48ACF8091F50762
:1022C00081FD86CF1092F40783CF4091F60750919D
:1022D000F7076091F8077091F9079D59A946BA432D
:1022E0008093FA079093FB07A093FC07B093FD0738
:1022F0004F5F5F4F6F4F7F4F4093F6075093F70745
:102300006093F8077093F90781CFEBE4F7E013824D
:10231000128288EE93E0A0E0B0E084839583A683E8
:10232000B78386E294E09183808385EC90E0958783
:10233000848784EC90E09787868780EC90E0918B8F
:10234000808B81EC90E0938B828B82EC90E0958B7C
:10235000848B86EC90E0978B868B118E128E138E79
:10236000148E0895EE0FFF1F881F8BBF0790F69104
:10237000E02D1994002E083090F0982F872F762F9B
:10238000652F542F432F322F22270850F4CF220FCE
:10239000331F441F551F661F771F881F991F0A95FB
:1023A000B2F7002D089597FD1094002E083098F094
:1023B0000850232F342F452F562F672F782F892F22
:1023C000912DF4CF159497958795779567955795A7
:1023D0004795379527950A95AAF71124002D08955A
:1023E0000F931F93CF93DF938230910510F482E017
:1023F00090E0E0911608F091170830E020E0B0E09E
:10240000A0E0309799F42115310509F44AC0281B42
:10241000390B24303105D8F58A819B81611571050E
:1024200089F1FB0193838283FE0111C040815181B8
:102430000281138148175907E0F04817590799F4AA
:10244000109761F012960C93129713961C93329684
:10245000CF01DF91CF911F910F910895009316083E
:1024600010931708F4CF2115310551F04217530787
:1024700038F0A901DB019A01BD01DF01F801C1CFEC
:10248000EF01F9CF9093170880931608CDCFFE0186
:10249000E20FF31F819391932250310939832883EE
:1024A000D7CF2091140830911508232B41F42091A7
:1024B00002023091030230931508209314082091F2
:1024C0000002309101022115310541F42DB73EB7CC
:1024D0004091040250910502241B350BE091140831
:1024E000F0911508E217F307A0F42E1B3F0B2817F5
:1024F000390778F0AC014E5F5F4F2417350748F07D
:102500004E0F5F1F509315084093140881939193C9
:102510009FCFF0E0E0E09CCFCF93DF930097E9F00E
:10252000FC01329713821282A0911608B09117080D
:10253000ED0130E020E01097A1F420813181820F7D
:10254000931F20911408309115082817390709F0B6
:1025500061C0F0931508E0931408DF91CF910895BE
:10256000EA01CE17DF07E8F54A815B819E0141153C
:102570005105B1F7E901FB83EA8349915991C40FF1
:10258000D51FEC17FD0761F4808191810296840FBD
:10259000951FE90199838883828193819B838A8334
:1025A000F0E0E0E012968D919C9113970097B9F5B9
:1025B0002D913C911197CD010296820F931F20918E
:1025C0001408309115082817390739F6309751F556
:1025D0001092170810921608B0931508A0931408CB
:1025E000BCCFD383C28340815181840F951FC8170C
:1025F000D90761F44E5F5F4F88819981480F591F59
:10260000518340838A819B81938382832115310585
:1026100009F0B0CFF0931708E09316089ECFFD01A4
:10262000DC01C0CF13821282D7CFFB01DC0102C0D4
:1026300001900D9241505040D8F70895F894FFCF83
:1026400000001808800000C0C101C30302C2C60612
:1026500007C705C5C404CC0C0DCD0FCFCE0E0ACADA
:10266000CB0BC90908C8D81819D91BDBDA1A1EDE2A
:10267000DF1FDD1D1CDC14D4D515D71716D6D212DA
:1026800013D311D1D010F03031F133F3F23236F6EA
:10269000F737F53534F43CFCFD3DFF3F3EFEFA3A9A
:1026A0003BFB39F9F83828E8E929EB2B2AEAEE2E2A
:1026B0002FEF2DEDEC2CE42425E527E7E62622E29A
:1026C000E323E12120E0A06061A163A3A26266A6EA
:1026D000A767A56564A46CACAD6DAF6F6EAEAA6A5A
:1026E0006BAB69A9A86878B8B979BB7B7ABABE7EAA
:1026F0007FBF7DBDBC7CB47475B577B7B67672B25A
:10270000B373B17170B050909151935352929656E9
:102710005797559594549C5C5D9D5F9F9E5E5A9A19
:102720009B5B99595898884849894B8B8A4A4E8EA9
:102730008F4F8D4D4C8C4484854587474686824219
:1027400043834181804000C1814001C0804101C07C
:10275000804100C1814001C0804100C1814000C171
:10276000814001C0804101C0804100C1814000C161
:10277000814001C0804100C1814001C0804101C051
:10278000804100C1814001C0804100C1814000C141
:10279000814001C0804100C1814001C0804101C031
:1027A000804100C1814000C1814001C0804101C021
:1027B000804100C1814001C0804100C1814000C111
:1027C000814001C0804101C0804100C1814000C101
:1027D000814001C0804100C1814001C0804101C0F1
:1027E000804100C1814000C1814001C0804101C0E1
:1027F000804100C1814001C0804100C1814000C1D1
:10280000814001C0804100C1814001C0804101C0C0
:10281000804100C1814001C0804100C1814000C1B0
:10282000814001C0804101C0804100C1814000C1A0
:10283000814001C0804100C1814001C0804101C090
:10284000804100C18140E8070F00EA070F00EC0754
:102850000F00EE070F00F0070F00F2070F00F4075C
:102860000F0000000000A0020A023702ED02680219
:1028700046025A0231363361646537323864666520
:10288000613534633061353437393664383261321A
:0628900038306364000013
:00000001FF
